{"abi":[{"type":"constructor","inputs":[],"stateMutability":"nonpayable"},{"type":"function","name":"MAX_REGISTRATION_FEE","inputs":[],"outputs":[{"name":"","type":"uint256","internalType":"uint256"}],"stateMutability":"view"},{"type":"function","name":"getContractInfo","inputs":[],"outputs":[{"name":"contractOwner","type":"address","internalType":"address"},{"name":"currentFee","type":"uint256","internalType":"uint256"},{"name":"systemCount","type":"uint256","internalType":"uint256"},{"name":"contractBalance","type":"uint256","internalType":"uint256"}],"stateMutability":"view"},{"type":"function","name":"getProviderSystems","inputs":[{"name":"_provider","type":"address","internalType":"address"}],"outputs":[{"name":"","type":"uint256[]","internalType":"uint256[]"}],"stateMutability":"view"},{"type":"function","name":"getSystem","inputs":[{"name":"_systemId","type":"uint256","internalType":"uint256"}],"outputs":[{"name":"","type":"tuple","internalType":"struct AIActRegistry.AISystem","components":[{"name":"name","type":"string","internalType":"string"},{"name":"purpose","type":"string","internalType":"string"},{"name":"provider","type":"address","internalType":"address"},{"name":"risk","type":"uint8","internalType":"enum AIActRegistry.RiskLevel"},{"name":"status","type":"uint8","internalType":"enum AIActRegistry.ComplianceStatus"},{"name":"registeredAt","type":"uint256","internalType":"uint256"},{"name":"lastUpdated","type":"uint256","internalType":"uint256"},{"name":"ipfsHash","type":"string","internalType":"string"},{"name":"verified","type":"bool","internalType":"bool"}]}],"stateMutability":"view"},{"type":"function","name":"owner","inputs":[],"outputs":[{"name":"","type":"address","internalType":"address"}],"stateMutability":"view"},{"type":"function","name":"providerSystems","inputs":[{"name":"","type":"address","internalType":"address"},{"name":"","type":"uint256","internalType":"uint256"}],"outputs":[{"name":"","type":"uint256","internalType":"uint256"}],"stateMutability":"view"},{"type":"function","name":"registerSystem","inputs":[{"name":"_name","type":"string","internalType":"string"},{"name":"_purpose","type":"string","internalType":"string"},{"name":"_risk","type":"uint8","internalType":"enum AIActRegistry.RiskLevel"},{"name":"_ipfsHash","type":"string","internalType":"string"}],"outputs":[{"name":"","type":"uint256","internalType":"uint256"}],"stateMutability":"payable"},{"type":"function","name":"registrationFee","inputs":[],"outputs":[{"name":"","type":"uint256","internalType":"uint256"}],"stateMutability":"view"},{"type":"function","name":"systems","inputs":[{"name":"","type":"uint256","internalType":"uint256"}],"outputs":[{"name":"name","type":"string","internalType":"string"},{"name":"purpose","type":"string","internalType":"string"},{"name":"provider","type":"address","internalType":"address"},{"name":"risk","type":"uint8","internalType":"enum AIActRegistry.RiskLevel"},{"name":"status","type":"uint8","internalType":"enum AIActRegistry.ComplianceStatus"},{"name":"registeredAt","type":"uint256","internalType":"uint256"},{"name":"lastUpdated","type":"uint256","internalType":"uint256"},{"name":"ipfsHash","type":"string","internalType":"string"},{"name":"verified","type":"bool","internalType":"bool"}],"stateMutability":"view"},{"type":"function","name":"totalSystems","inputs":[],"outputs":[{"name":"","type":"uint256","internalType":"uint256"}],"stateMutability":"view"},{"type":"function","name":"transferOwnership","inputs":[{"name":"_newOwner","type":"address","internalType":"address"}],"outputs":[],"stateMutability":"nonpayable"},{"type":"function","name":"updateCompliance","inputs":[{"name":"_systemId","type":"uint256","internalType":"uint256"},{"name":"_newStatus","type":"uint8","internalType":"enum AIActRegistry.ComplianceStatus"},{"name":"_newIpfsHash","type":"string","internalType":"string"}],"outputs":[],"stateMutability":"nonpayable"},{"type":"function","name":"updateFee","inputs":[{"name":"_newFee","type":"uint256","internalType":"uint256"}],"outputs":[],"stateMutability":"nonpayable"},{"type":"function","name":"withdrawFees","inputs":[],"outputs":[],"stateMutability":"nonpayable"},{"type":"event","name":"ComplianceUpdated","inputs":[{"name":"systemId","type":"uint256","indexed":true,"internalType":"uint256"},{"name":"oldStatus","type":"uint8","indexed":false,"internalType":"enum AIActRegistry.ComplianceStatus"},{"name":"newStatus","type":"uint8","indexed":false,"internalType":"enum AIActRegistry.ComplianceStatus"}],"anonymous":false},{"type":"event","name":"FeeUpdated","inputs":[{"name":"oldFee","type":"uint256","indexed":false,"internalType":"uint256"},{"name":"newFee","type":"uint256","indexed":false,"internalType":"uint256"}],"anonymous":false},{"type":"event","name":"OwnershipTransferred","inputs":[{"name":"previousOwner","type":"address","indexed":true,"internalType":"address"},{"name":"newOwner","type":"address","indexed":true,"internalType":"address"}],"anonymous":false},{"type":"event","name":"RefundIssued","inputs":[{"name":"recipient","type":"address","indexed":true,"internalType":"address"},{"name":"amount","type":"uint256","indexed":false,"internalType":"uint256"}],"anonymous":false},{"type":"event","name":"SystemRegistered","inputs":[{"name":"systemId","type":"uint256","indexed":true,"internalType":"uint256"},{"name":"provider","type":"address","indexed":true,"internalType":"address"},{"name":"name","type":"string","indexed":false,"internalType":"string"},{"name":"risk","type":"uint8","indexed":true,"internalType":"enum AIActRegistry.RiskLevel"}],"anonymous":false}],"bytecode":{"object":"0x6080604052662386f26fc100006001553480156019575f5ffd5b50335f5f6101000a81548173ffffffffffffffffffffffffffffffffffffffff021916908373ffffffffffffffffffffffffffffffffffffffff16021790555061287a806100665f395ff3fe6080604052600436106100dc575f3560e01c80637cc1f8671161007e578063b14af36c11610058578063b14af36c146102b5578063d04c82bd146102dd578063f2fde38b14610319578063fb2860ff14610341576100dc565b80637cc1f867146102365780638da5cb5b146102635780639012c4a81461028d576100dc565b80632376d9a4116100ba5780632376d9a41461018a57806337081fbe146101b4578063476343ee146101e457806353e41c1e146101fa576100dc565b80630982114c146100e05780630ffca6041461011c57806314c44e0914610160575b5f5ffd5b3480156100eb575f5ffd5b5061010660048036038101906101019190611696565b61036b565b6040516101139190611781565b60405180910390f35b348015610127575f5ffd5b50610142600480360381019061013d91906117cb565b6103fe565b60405161015799989796959493929190611957565b60405180910390f35b34801561016b575f5ffd5b5061017461061f565b60405161018191906119f7565b60405180910390f35b348015610195575f5ffd5b5061019e610625565b6040516101ab91906119f7565b60405180910390f35b6101ce60048036038101906101c99190611b5f565b610631565b6040516101db91906119f7565b60405180910390f35b3480156101ef575f5ffd5b506101f8610b81565b005b348015610205575f5ffd5b50610220600480360381019061021b91906117cb565b610d21565b60405161022d9190611d6b565b60405180910390f35b348015610241575f5ffd5b5061024a611045565b60405161025a9493929190611d8b565b60405180910390f35b34801561026e575f5ffd5b5061027761107f565b6040516102849190611dce565b60405180910390f35b348015610298575f5ffd5b506102b360048036038101906102ae91906117cb565b6110a3565b005b3480156102c0575f5ffd5b506102db60048036038101906102d69190611e0a565b6111c6565b005b3480156102e8575f5ffd5b5061030360048036038101906102fe9190611e76565b6113bb565b60405161031091906119f7565b60405180910390f35b348015610324575f5ffd5b5061033f600480360381019061033a9190611696565b6113e6565b005b34801561034c575f5ffd5b506103556115a3565b60405161036291906119f7565b60405180910390f35b606060045f8373ffffffffffffffffffffffffffffffffffffffff1673ffffffffffffffffffffffffffffffffffffffff1681526020019081526020015f208054806020026020016040519081016040528092919081815260200182805480156103f257602002820191905f5260205f20905b8154815260200190600101908083116103de575b50505050509050919050565b6003602052805f5260405f205f91509050805f01805461041d90611ee1565b80601f016020809104026020016040519081016040528092919081815260200182805461044990611ee1565b80156104945780601f1061046b57610100808354040283529160200191610494565b820191905f5260205f20905b81548152906001019060200180831161047757829003601f168201915b5050505050908060010180546104a990611ee1565b80601f01602080910402602001604051908101604052809291908181526020018280546104d590611ee1565b80156105205780601f106104f757610100808354040283529160200191610520565b820191905f5260205f20905b81548152906001019060200180831161050357829003601f168201915b505050505090806002015f9054906101000a900473ffffffffffffffffffffffffffffffffffffffff16908060020160149054906101000a900460ff16908060020160159054906101000a900460ff169080600301549080600401549080600501805461058c90611ee1565b80601f01602080910402602001604051908101604052809291908181526020018280546105b890611ee1565b80156106035780601f106105da57610100808354040283529160200191610603565b820191905f5260205f20905b8154815290600101906020018083116105e657829003601f168201915b505050505090806006015f9054906101000a900460ff16905089565b60015481565b670de0b6b3a764000081565b5f600154341015610677576040517f08c379a000000000000000000000000000000000000000000000000000000000815260040161066e90611f5b565b60405180910390fd5b5f855111801561068957506064855111155b6106c8576040517f08c379a00000000000000000000000000000000000000000000000000000000081526004016106bf90611fc3565b60405180910390fd5b5f84511180156106db57506101f4845111155b61071a576040517f08c379a00000000000000000000000000000000000000000000000000000000081526004016107119061202b565b60405180910390fd5b5f825111801561072c57506064825111155b61076b576040517f08c379a000000000000000000000000000000000000000000000000000000000815260040161076290612093565b60405180910390fd5b60038081111561077e5761077d611875565b5b83600381111561079157610790611875565b5b036107d1576040517f08c379a00000000000000000000000000000000000000000000000000000000081526004016107c890612121565b60405180910390fd5b60025f8154809291906107e39061216c565b91905055505f60025490506040518061012001604052808781526020018681526020013373ffffffffffffffffffffffffffffffffffffffff16815260200185600381111561083557610834611875565b5b81526020015f600381111561084d5761084c611875565b5b81526020014281526020014281526020018481526020015f151581525060035f8381526020019081526020015f205f820151815f01908161088e9190612353565b5060208201518160010190816108a49190612353565b506040820151816002015f6101000a81548173ffffffffffffffffffffffffffffffffffffffff021916908373ffffffffffffffffffffffffffffffffffffffff16021790555060608201518160020160146101000a81548160ff0219169083600381111561091657610915611875565b5b021790555060808201518160020160156101000a81548160ff0219169083600381111561094657610945611875565b5b021790555060a0820151816003015560c0820151816004015560e08201518160050190816109749190612353565b50610100820151816006015f6101000a81548160ff02191690831515021790555090505060045f3373ffffffffffffffffffffffffffffffffffffffff1673ffffffffffffffffffffffffffffffffffffffff1681526020019081526020015f2081908060018154018082558091505060019003905f5260205f20015f9091909190915055836003811115610a0c57610a0b611875565b5b3373ffffffffffffffffffffffffffffffffffffffff16827f9b44213513dadd189f85061001fc3460de67f65f605e923ae338b8e49263264f89604051610a539190612422565b60405180910390a4600154341115610b75575f60015434610a749190612442565b90505f3373ffffffffffffffffffffffffffffffffffffffff1682604051610a9b906124a2565b5f6040518083038185875af1925050503d805f8114610ad5576040519150601f19603f3d011682016040523d82523d5f602084013e610ada565b606091505b505090508015610b37573373ffffffffffffffffffffffffffffffffffffffff167fa171b6942063c6f2800ce40a780edce37baa2b618571b11eedd1e69e626e7d7683604051610b2a91906119f7565b60405180910390a2610b72565b6040517f08c379a0000000000000000000000000000000000000000000000000000000008152600401610b6990612500565b60405180910390fd5b50505b80915050949350505050565b5f5f9054906101000a900473ffffffffffffffffffffffffffffffffffffffff1673ffffffffffffffffffffffffffffffffffffffff163373ffffffffffffffffffffffffffffffffffffffff1614610c0f576040517f08c379a0000000000000000000000000000000000000000000000000000000008152600401610c0690612568565b60405180910390fd5b5f4790505f8111610c55576040517f08c379a0000000000000000000000000000000000000000000000000000000008152600401610c4c906125d0565b60405180910390fd5b5f5f5f9054906101000a900473ffffffffffffffffffffffffffffffffffffffff1673ffffffffffffffffffffffffffffffffffffffff1682604051610c9a906124a2565b5f6040518083038185875af1925050503d805f8114610cd4576040519150601f19603f3d011682016040523d82523d5f602084013e610cd9565b606091505b5050905080610d1d576040517f08c379a0000000000000000000000000000000000000000000000000000000008152600401610d1490612638565b60405180910390fd5b5050565b610d296115a9565b5f82118015610d3a57506002548211155b610d79576040517f08c379a0000000000000000000000000000000000000000000000000000000008152600401610d70906126a0565b60405180910390fd5b60035f8381526020019081526020015f20604051806101200160405290815f82018054610da590611ee1565b80601f0160208091040260200160405190810160405280929190818152602001828054610dd190611ee1565b8015610e1c5780601f10610df357610100808354040283529160200191610e1c565b820191905f5260205f20905b815481529060010190602001808311610dff57829003601f168201915b50505050508152602001600182018054610e3590611ee1565b80601f0160208091040260200160405190810160405280929190818152602001828054610e6190611ee1565b8015610eac5780601f10610e8357610100808354040283529160200191610eac565b820191905f5260205f20905b815481529060010190602001808311610e8f57829003601f168201915b50505050508152602001600282015f9054906101000a900473ffffffffffffffffffffffffffffffffffffffff1673ffffffffffffffffffffffffffffffffffffffff1673ffffffffffffffffffffffffffffffffffffffff1681526020016002820160149054906101000a900460ff166003811115610f2f57610f2e611875565b5b6003811115610f4157610f40611875565b5b81526020016002820160159054906101000a900460ff166003811115610f6a57610f69611875565b5b6003811115610f7c57610f7b611875565b5b81526020016003820154815260200160048201548152602001600582018054610fa490611ee1565b80601f0160208091040260200160405190810160405280929190818152602001828054610fd090611ee1565b801561101b5780601f10610ff25761010080835404028352916020019161101b565b820191905f5260205f20905b815481529060010190602001808311610ffe57829003601f168201915b50505050508152602001600682015f9054906101000a900460ff1615151515815250509050919050565b5f5f5f5f5f5f9054906101000a900473ffffffffffffffffffffffffffffffffffffffff1660015460025447935093509350935090919293565b5f5f9054906101000a900473ffffffffffffffffffffffffffffffffffffffff1681565b5f5f9054906101000a900473ffffffffffffffffffffffffffffffffffffffff1673ffffffffffffffffffffffffffffffffffffffff163373ffffffffffffffffffffffffffffffffffffffff1614611131576040517f08c379a000000000000000000000000000000000000000000000000000000000815260040161112890612568565b60405180910390fd5b670de0b6b3a764000081111561117c576040517f08c379a000000000000000000000000000000000000000000000000000000000815260040161117390612708565b60405180910390fd5b5f6001549050816001819055507f528d9479e9f9889a87a3c30c7f7ba537e5e59c4c85a37733b16e57c62df6130281836040516111ba929190612726565b60405180910390a15050565b825f811180156111d857506002548111155b611217576040517f08c379a000000000000000000000000000000000000000000000000000000000815260040161120e906126a0565b60405180910390fd5b3373ffffffffffffffffffffffffffffffffffffffff1660035f8381526020019081526020015f206002015f9054906101000a900473ffffffffffffffffffffffffffffffffffffffff1673ffffffffffffffffffffffffffffffffffffffff16146112b8576040517f08c379a00000000000000000000000000000000000000000000000000000000081526004016112af90612797565b60405180910390fd5b5f82511180156112ca57506064825111155b611309576040517f08c379a000000000000000000000000000000000000000000000000000000000815260040161130090612093565b60405180910390fd5b5f60035f8681526020019081526020015f2090505f8160020160159054906101000a900460ff169050848260020160156101000a81548160ff0219169083600381111561135957611358611875565b5b0217905550428260040181905550838260050190816113789190612353565b50857f4c5c9d55085359dd7299427ea4110bd2550e182bd689876c3f3034b7f448830c82876040516113ab9291906127b5565b60405180910390a2505050505050565b6004602052815f5260405f2081815481106113d4575f80fd5b905f5260205f20015f91509150505481565b5f5f9054906101000a900473ffffffffffffffffffffffffffffffffffffffff1673ffffffffffffffffffffffffffffffffffffffff163373ffffffffffffffffffffffffffffffffffffffff1614611474576040517f08c379a000000000000000000000000000000000000000000000000000000000815260040161146b90612568565b60405180910390fd5b5f73ffffffffffffffffffffffffffffffffffffffff168173ffffffffffffffffffffffffffffffffffffffff16036114e2576040517f08c379a00000000000000000000000000000000000000000000000000000000081526004016114d990612826565b60405180910390fd5b5f5f5f9054906101000a900473ffffffffffffffffffffffffffffffffffffffff169050815f5f6101000a81548173ffffffffffffffffffffffffffffffffffffffff021916908373ffffffffffffffffffffffffffffffffffffffff1602179055508173ffffffffffffffffffffffffffffffffffffffff168173ffffffffffffffffffffffffffffffffffffffff167f8be0079c531659141344cd1fd0a4f28419497f9722a3daafe3b4186f6b6457e060405160405180910390a35050565b60025481565b60405180610120016040528060608152602001606081526020015f73ffffffffffffffffffffffffffffffffffffffff1681526020015f60038111156115f2576115f1611875565b5b81526020015f600381111561160a57611609611875565b5b81526020015f81526020015f8152602001606081526020015f151581525090565b5f604051905090565b5f5ffd5b5f5ffd5b5f73ffffffffffffffffffffffffffffffffffffffff82169050919050565b5f6116658261163c565b9050919050565b6116758161165b565b811461167f575f5ffd5b50565b5f813590506116908161166c565b92915050565b5f602082840312156116ab576116aa611634565b5b5f6116b884828501611682565b91505092915050565b5f81519050919050565b5f82825260208201905092915050565b5f819050602082019050919050565b5f819050919050565b6116fc816116ea565b82525050565b5f61170d83836116f3565b60208301905092915050565b5f602082019050919050565b5f61172f826116c1565b61173981856116cb565b9350611744836116db565b805f5b8381101561177457815161175b8882611702565b975061176683611719565b925050600181019050611747565b5085935050505092915050565b5f6020820190508181035f8301526117998184611725565b905092915050565b6117aa816116ea565b81146117b4575f5ffd5b50565b5f813590506117c5816117a1565b92915050565b5f602082840312156117e0576117df611634565b5b5f6117ed848285016117b7565b91505092915050565b5f81519050919050565b5f82825260208201905092915050565b8281835e5f83830152505050565b5f601f19601f8301169050919050565b5f611838826117f6565b6118428185611800565b9350611852818560208601611810565b61185b8161181e565b840191505092915050565b61186f8161165b565b82525050565b7f4e487b71000000000000000000000000000000000000000000000000000000005f52602160045260245ffd5b600481106118b3576118b2611875565b5b50565b5f8190506118c3826118a2565b919050565b5f6118d2826118b6565b9050919050565b6118e2816118c8565b82525050565b600481106118f9576118f8611875565b5b50565b5f819050611909826118e8565b919050565b5f611918826118fc565b9050919050565b6119288161190e565b82525050565b611937816116ea565b82525050565b5f8115159050919050565b6119518161193d565b82525050565b5f610120820190508181035f830152611970818c61182e565b90508181036020830152611984818b61182e565b9050611993604083018a611866565b6119a060608301896118d9565b6119ad608083018861191f565b6119ba60a083018761192e565b6119c760c083018661192e565b81810360e08301526119d9818561182e565b90506119e9610100830184611948565b9a9950505050505050505050565b5f602082019050611a0a5f83018461192e565b92915050565b5f5ffd5b5f5ffd5b7f4e487b71000000000000000000000000000000000000000000000000000000005f52604160045260245ffd5b611a4e8261181e565b810181811067ffffffffffffffff82111715611a6d57611a6c611a18565b5b80604052505050565b5f611a7f61162b565b9050611a8b8282611a45565b919050565b5f67ffffffffffffffff821115611aaa57611aa9611a18565b5b611ab38261181e565b9050602081019050919050565b828183375f83830152505050565b5f611ae0611adb84611a90565b611a76565b905082815260208101848484011115611afc57611afb611a14565b5b611b07848285611ac0565b509392505050565b5f82601f830112611b2357611b22611a10565b5b8135611b33848260208601611ace565b91505092915050565b60048110611b48575f5ffd5b50565b5f81359050611b5981611b3c565b92915050565b5f5f5f5f60808587031215611b7757611b76611634565b5b5f85013567ffffffffffffffff811115611b9457611b93611638565b5b611ba087828801611b0f565b945050602085013567ffffffffffffffff811115611bc157611bc0611638565b5b611bcd87828801611b0f565b9350506040611bde87828801611b4b565b925050606085013567ffffffffffffffff811115611bff57611bfe611638565b5b611c0b87828801611b0f565b91505092959194509250565b5f82825260208201905092915050565b5f611c31826117f6565b611c3b8185611c17565b9350611c4b818560208601611810565b611c548161181e565b840191505092915050565b611c688161165b565b82525050565b611c77816118c8565b82525050565b611c868161190e565b82525050565b611c958161193d565b82525050565b5f61012083015f8301518482035f860152611cb68282611c27565b91505060208301518482036020860152611cd08282611c27565b9150506040830151611ce56040860182611c5f565b506060830151611cf86060860182611c6e565b506080830151611d0b6080860182611c7d565b5060a0830151611d1e60a08601826116f3565b5060c0830151611d3160c08601826116f3565b5060e083015184820360e0860152611d498282611c27565b915050610100830151611d60610100860182611c8c565b508091505092915050565b5f6020820190508181035f830152611d838184611c9b565b905092915050565b5f608082019050611d9e5f830187611866565b611dab602083018661192e565b611db8604083018561192e565b611dc5606083018461192e565b95945050505050565b5f602082019050611de15f830184611866565b92915050565b60048110611df3575f5ffd5b50565b5f81359050611e0481611de7565b92915050565b5f5f5f60608486031215611e2157611e20611634565b5b5f611e2e868287016117b7565b9350506020611e3f86828701611df6565b925050604084013567ffffffffffffffff811115611e6057611e5f611638565b5b611e6c86828701611b0f565b9150509250925092565b5f5f60408385031215611e8c57611e8b611634565b5b5f611e9985828601611682565b9250506020611eaa858286016117b7565b9150509250929050565b7f4e487b71000000000000000000000000000000000000000000000000000000005f52602260045260245ffd5b5f6002820490506001821680611ef857607f821691505b602082108103611f0b57611f0a611eb4565b5b50919050565b7f496e73756666696369656e7420666565000000000000000000000000000000005f82015250565b5f611f45601083611800565b9150611f5082611f11565b602082019050919050565b5f6020820190508181035f830152611f7281611f39565b9050919050565b7f496e76616c6964206e616d65206c656e677468000000000000000000000000005f82015250565b5f611fad601383611800565b9150611fb882611f79565b602082019050919050565b5f6020820190508181035f830152611fda81611fa1565b9050919050565b7f496e76616c696420707572706f7365206c656e677468000000000000000000005f82015250565b5f612015601683611800565b915061202082611fe1565b602082019050919050565b5f6020820190508181035f83015261204281612009565b9050919050565b7f496e76616c696420495046532068617368206c656e67746800000000000000005f82015250565b5f61207d601883611800565b915061208882612049565b602082019050919050565b5f6020820190508181035f8301526120aa81612071565b9050919050565b7f43616e6e6f7420726567697374657220756e61636365707461626c65207269735f8201527f6b20414900000000000000000000000000000000000000000000000000000000602082015250565b5f61210b602483611800565b9150612116826120b1565b604082019050919050565b5f6020820190508181035f830152612138816120ff565b9050919050565b7f4e487b71000000000000000000000000000000000000000000000000000000005f52601160045260245ffd5b5f612176826116ea565b91507fffffffffffffffffffffffffffffffffffffffffffffffffffffffffffffffff82036121a8576121a761213f565b5b600182019050919050565b5f819050815f5260205f209050919050565b5f6020601f8301049050919050565b5f82821b905092915050565b5f6008830261220f7fffffffffffffffffffffffffffffffffffffffffffffffffffffffffffffffff826121d4565b61221986836121d4565b95508019841693508086168417925050509392505050565b5f819050919050565b5f61225461224f61224a846116ea565b612231565b6116ea565b9050919050565b5f819050919050565b61226d8361223a565b6122816122798261225b565b8484546121e0565b825550505050565b5f5f905090565b612298612289565b6122a3818484612264565b505050565b5b818110156122c6576122bb5f82612290565b6001810190506122a9565b5050565b601f82111561230b576122dc816121b3565b6122e5846121c5565b810160208510156122f4578190505b612308612300856121c5565b8301826122a8565b50505b505050565b5f82821c905092915050565b5f61232b5f1984600802612310565b1980831691505092915050565b5f612343838361231c565b9150826002028217905092915050565b61235c826117f6565b67ffffffffffffffff81111561237557612374611a18565b5b61237f8254611ee1565b61238a8282856122ca565b5f60209050601f8311600181146123bb575f84156123a9578287015190505b6123b38582612338565b86555061241a565b601f1984166123c9866121b3565b5f5b828110156123f0578489015182556001820191506020850194506020810190506123cb565b8683101561240d5784890151612409601f89168261231c565b8355505b6001600288020188555050505b505050505050565b5f6020820190508181035f83015261243a818461182e565b905092915050565b5f61244c826116ea565b9150612457836116ea565b925082820390508181111561246f5761246e61213f565b5b92915050565b5f81905092915050565b50565b5f61248d5f83612475565b91506124988261247f565b5f82019050919050565b5f6124ac82612482565b9150819050919050565b7f526566756e64206661696c6564000000000000000000000000000000000000005f82015250565b5f6124ea600d83611800565b91506124f5826124b6565b602082019050919050565b5f6020820190508181035f830152612517816124de565b9050919050565b7f4e6f7420617574686f72697a65640000000000000000000000000000000000005f82015250565b5f612552600e83611800565b915061255d8261251e565b602082019050919050565b5f6020820190508181035f83015261257f81612546565b9050919050565b7f4e6f206665657320746f207769746864726177000000000000000000000000005f82015250565b5f6125ba601383611800565b91506125c582612586565b602082019050919050565b5f6020820190508181035f8301526125e7816125ae565b9050919050565b7f4661696c656420746f2073656e642045746865720000000000000000000000005f82015250565b5f612622601483611800565b915061262d826125ee565b602082019050919050565b5f6020820190508181035f83015261264f81612616565b9050919050565b7f53797374656d20646f6573206e6f7420657869737400000000000000000000005f82015250565b5f61268a601583611800565b915061269582612656565b602082019050919050565b5f6020820190508181035f8301526126b78161267e565b9050919050565b7f4665652065786365656473206d6178696d756d206c696d6974000000000000005f82015250565b5f6126f2601983611800565b91506126fd826126be565b602082019050919050565b5f6020820190508181035f83015261271f816126e6565b9050919050565b5f6040820190506127395f83018561192e565b612746602083018461192e565b9392505050565b7f4e6f742073797374656d2070726f7669646572000000000000000000000000005f82015250565b5f612781601383611800565b915061278c8261274d565b602082019050919050565b5f6020820190508181035f8301526127ae81612775565b9050919050565b5f6040820190506127c85f83018561191f565b6127d5602083018461191f565b9392505050565b7f496e76616c6964206e6577206f776e65720000000000000000000000000000005f82015250565b5f612810601183611800565b915061281b826127dc565b602082019050919050565b5f6020820190508181035f83015261283d81612804565b905091905056fea2646970667358221220568af2d9fd2fed2c85b0262c2dab74063689e50abcc453eff55caa47a486cb6664736f6c634300081e0033","linkReferences":{}},"methodIdentifiers":{"MAX_REGISTRATION_FEE()":"2376d9a4","getContractInfo()":"7cc1f867","getProviderSystems(address)":"0982114c","getSystem(uint256)":"53e41c1e","owner()":"8da5cb5b","providerSystems(address,uint256)":"d04c82bd","registerSystem(string,string,uint8,string)":"37081fbe","registrationFee()":"14c44e09","systems(uint256)":"0ffca604","totalSystems()":"fb2860ff","transferOwnership(address)":"f2fde38b","updateCompliance(uint256,uint8,string)":"b14af36c","updateFee(uint256)":"9012c4a8","withdrawFees()":"476343ee"},"id":21}