{"abi":[{"type":"constructor","inputs":[],"stateMutability":"nonpayable"},{"type":"function","name":"getProviderSystems","inputs":[{"name":"_provider","type":"address","internalType":"address"}],"outputs":[{"name":"","type":"uint256[]","internalType":"uint256[]"}],"stateMutability":"view"},{"type":"function","name":"owner","inputs":[],"outputs":[{"name":"","type":"address","internalType":"address"}],"stateMutability":"view"},{"type":"function","name":"providerSystems","inputs":[{"name":"","type":"address","internalType":"address"},{"name":"","type":"uint256","internalType":"uint256"}],"outputs":[{"name":"","type":"uint256","internalType":"uint256"}],"stateMutability":"view"},{"type":"function","name":"registerSystem","inputs":[{"name":"_name","type":"string","internalType":"string"},{"name":"_purpose","type":"string","internalType":"string"},{"name":"_risk","type":"uint8","internalType":"enum AIActRegistry.RiskLevel"},{"name":"_ipfsHash","type":"string","internalType":"string"}],"outputs":[{"name":"","type":"uint256","internalType":"uint256"}],"stateMutability":"payable"},{"type":"function","name":"registrationFee","inputs":[],"outputs":[{"name":"","type":"uint256","internalType":"uint256"}],"stateMutability":"view"},{"type":"function","name":"systems","inputs":[{"name":"","type":"uint256","internalType":"uint256"}],"outputs":[{"name":"name","type":"string","internalType":"string"},{"name":"purpose","type":"string","internalType":"string"},{"name":"provider","type":"address","internalType":"address"},{"name":"risk","type":"uint8","internalType":"enum AIActRegistry.RiskLevel"},{"name":"status","type":"uint8","internalType":"enum AIActRegistry.ComplianceStatus"},{"name":"registeredAt","type":"uint256","internalType":"uint256"},{"name":"lastUpdated","type":"uint256","internalType":"uint256"},{"name":"ipfsHash","type":"string","internalType":"string"},{"name":"verified","type":"bool","internalType":"bool"}],"stateMutability":"view"},{"type":"function","name":"totalSystems","inputs":[],"outputs":[{"name":"","type":"uint256","internalType":"uint256"}],"stateMutability":"view"},{"type":"function","name":"updateCompliance","inputs":[{"name":"_systemId","type":"uint256","internalType":"uint256"},{"name":"_newStatus","type":"uint8","internalType":"enum AIActRegistry.ComplianceStatus"},{"name":"_newIpfsHash","type":"string","internalType":"string"}],"outputs":[],"stateMutability":"nonpayable"},{"type":"function","name":"updateFee","inputs":[{"name":"_newFee","type":"uint256","internalType":"uint256"}],"outputs":[],"stateMutability":"nonpayable"},{"type":"function","name":"withdrawFees","inputs":[],"outputs":[],"stateMutability":"nonpayable"},{"type":"event","name":"ComplianceUpdated","inputs":[{"name":"systemId","type":"uint256","indexed":true,"internalType":"uint256"},{"name":"oldStatus","type":"uint8","indexed":false,"internalType":"enum AIActRegistry.ComplianceStatus"},{"name":"newStatus","type":"uint8","indexed":false,"internalType":"enum AIActRegistry.ComplianceStatus"}],"anonymous":false},{"type":"event","name":"SystemRegistered","inputs":[{"name":"systemId","type":"uint256","indexed":true,"internalType":"uint256"},{"name":"provider","type":"address","indexed":true,"internalType":"address"},{"name":"name","type":"string","indexed":false,"internalType":"string"},{"name":"risk","type":"uint8","indexed":false,"internalType":"enum AIActRegistry.RiskLevel"}],"anonymous":false}],"bytecode":{"object":"0x6080604052662386f26fc100006001553480156019575f5ffd5b50335f5f6101000a81548173ffffffffffffffffffffffffffffffffffffffff021916908373ffffffffffffffffffffffffffffffffffffffff160217905550611a4f806100665f395ff3fe608060405260043610610090575f3560e01c80638da5cb5b116100585780638da5cb5b146101845780639012c4a8146101ae578063b14af36c146101d6578063d04c82bd146101fe578063fb2860ff1461023a57610090565b80630982114c146100945780630ffca604146100d057806314c44e091461011457806337081fbe1461013e578063476343ee1461016e575b5f5ffd5b34801561009f575f5ffd5b506100ba60048036038101906100b59190610cde565b610264565b6040516100c79190610dc9565b60405180910390f35b3480156100db575f5ffd5b506100f660048036038101906100f19190610e13565b6102f7565b60405161010b99989796959493929190610f9f565b60405180910390f35b34801561011f575f5ffd5b50610128610518565b604051610135919061103f565b60405180910390f35b610158600480360381019061015391906111a7565b61051e565b604051610165919061103f565b60405180910390f35b348015610179575f5ffd5b50610182610892565b005b34801561018f575f5ffd5b50610198610a32565b6040516101a5919061125f565b60405180910390f35b3480156101b9575f5ffd5b506101d460048036038101906101cf9190610e13565b610a56565b005b3480156101e1575f5ffd5b506101fc60048036038101906101f7919061129b565b610aee565b005b348015610209575f5ffd5b50610224600480360381019061021f9190611307565b610c42565b604051610231919061103f565b60405180910390f35b348015610245575f5ffd5b5061024e610c6d565b60405161025b919061103f565b60405180910390f35b606060045f8373ffffffffffffffffffffffffffffffffffffffff1673ffffffffffffffffffffffffffffffffffffffff1681526020019081526020015f208054806020026020016040519081016040528092919081815260200182805480156102eb57602002820191905f5260205f20905b8154815260200190600101908083116102d7575b50505050509050919050565b6003602052805f5260405f205f91509050805f01805461031690611372565b80601f016020809104026020016040519081016040528092919081815260200182805461034290611372565b801561038d5780601f106103645761010080835404028352916020019161038d565b820191905f5260205f20905b81548152906001019060200180831161037057829003601f168201915b5050505050908060010180546103a290611372565b80601f01602080910402602001604051908101604052809291908181526020018280546103ce90611372565b80156104195780601f106103f057610100808354040283529160200191610419565b820191905f5260205f20905b8154815290600101906020018083116103fc57829003601f168201915b505050505090806002015f9054906101000a900473ffffffffffffffffffffffffffffffffffffffff16908060020160149054906101000a900460ff16908060020160159054906101000a900460ff169080600301549080600401549080600501805461048590611372565b80601f01602080910402602001604051908101604052809291908181526020018280546104b190611372565b80156104fc5780601f106104d3576101008083540402835291602001916104fc565b820191905f5260205f20905b8154815290600101906020018083116104df57829003601f168201915b505050505090806006015f9054906101000a900460ff16905089565b60015481565b5f600154341015610564576040517f08c379a000000000000000000000000000000000000000000000000000000000815260040161055b906113ec565b60405180910390fd5b5f8551116105a7576040517f08c379a000000000000000000000000000000000000000000000000000000000815260040161059e90611454565b60405180910390fd5b6003808111156105ba576105b9610ebd565b5b8360038111156105cd576105cc610ebd565b5b0361060d576040517f08c379a0000000000000000000000000000000000000000000000000000000008152600401610604906114e2565b60405180910390fd5b60025f81548092919061061f9061152d565b91905055505f60025490506040518061012001604052808781526020018681526020013373ffffffffffffffffffffffffffffffffffffffff16815260200185600381111561067157610670610ebd565b5b81526020015f600381111561068957610688610ebd565b5b81526020014281526020014281526020018481526020015f151581525060035f8381526020019081526020015f205f820151815f0190816106ca9190611714565b5060208201518160010190816106e09190611714565b506040820151816002015f6101000a81548173ffffffffffffffffffffffffffffffffffffffff021916908373ffffffffffffffffffffffffffffffffffffffff16021790555060608201518160020160146101000a81548160ff0219169083600381111561075257610751610ebd565b5b021790555060808201518160020160156101000a81548160ff0219169083600381111561078257610781610ebd565b5b021790555060a0820151816003015560c0820151816004015560e08201518160050190816107b09190611714565b50610100820151816006015f6101000a81548160ff02191690831515021790555090505060045f3373ffffffffffffffffffffffffffffffffffffffff1673ffffffffffffffffffffffffffffffffffffffff1681526020019081526020015f2081908060018154018082558091505060019003905f5260205f20015f90919091909150553373ffffffffffffffffffffffffffffffffffffffff16817f9b44213513dadd189f85061001fc3460de67f65f605e923ae338b8e49263264f888760405161087e9291906117e3565b60405180910390a380915050949350505050565b5f5f9054906101000a900473ffffffffffffffffffffffffffffffffffffffff1673ffffffffffffffffffffffffffffffffffffffff163373ffffffffffffffffffffffffffffffffffffffff1614610920576040517f08c379a00000000000000000000000000000000000000000000000000000000081526004016109179061185b565b60405180910390fd5b5f4790505f8111610966576040517f08c379a000000000000000000000000000000000000000000000000000000000815260040161095d906118c3565b60405180910390fd5b5f5f5f9054906101000a900473ffffffffffffffffffffffffffffffffffffffff1673ffffffffffffffffffffffffffffffffffffffff16826040516109ab9061190e565b5f6040518083038185875af1925050503d805f81146109e5576040519150601f19603f3d011682016040523d82523d5f602084013e6109ea565b606091505b5050905080610a2e576040517f08c379a0000000000000000000000000000000000000000000000000000000008152600401610a259061196c565b60405180910390fd5b5050565b5f5f9054906101000a900473ffffffffffffffffffffffffffffffffffffffff1681565b5f5f9054906101000a900473ffffffffffffffffffffffffffffffffffffffff1673ffffffffffffffffffffffffffffffffffffffff163373ffffffffffffffffffffffffffffffffffffffff1614610ae4576040517f08c379a0000000000000000000000000000000000000000000000000000000008152600401610adb9061185b565b60405180910390fd5b8060018190555050565b823373ffffffffffffffffffffffffffffffffffffffff1660035f8381526020019081526020015f206002015f9054906101000a900473ffffffffffffffffffffffffffffffffffffffff1673ffffffffffffffffffffffffffffffffffffffff1614610b90576040517f08c379a0000000000000000000000000000000000000000000000000000000008152600401610b87906119d4565b60405180910390fd5b5f60035f8681526020019081526020015f2090505f8160020160159054906101000a900460ff169050848260020160156101000a81548160ff02191690836003811115610be057610bdf610ebd565b5b021790555042826004018190555083826005019081610bff9190611714565b50857f4c5c9d55085359dd7299427ea4110bd2550e182bd689876c3f3034b7f448830c8287604051610c329291906119f2565b60405180910390a2505050505050565b6004602052815f5260405f208181548110610c5b575f80fd5b905f5260205f20015f91509150505481565b60025481565b5f604051905090565b5f5ffd5b5f5ffd5b5f73ffffffffffffffffffffffffffffffffffffffff82169050919050565b5f610cad82610c84565b9050919050565b610cbd81610ca3565b8114610cc7575f5ffd5b50565b5f81359050610cd881610cb4565b92915050565b5f60208284031215610cf357610cf2610c7c565b5b5f610d0084828501610cca565b91505092915050565b5f81519050919050565b5f82825260208201905092915050565b5f819050602082019050919050565b5f819050919050565b610d4481610d32565b82525050565b5f610d558383610d3b565b60208301905092915050565b5f602082019050919050565b5f610d7782610d09565b610d818185610d13565b9350610d8c83610d23565b805f5b83811015610dbc578151610da38882610d4a565b9750610dae83610d61565b925050600181019050610d8f565b5085935050505092915050565b5f6020820190508181035f830152610de18184610d6d565b905092915050565b610df281610d32565b8114610dfc575f5ffd5b50565b5f81359050610e0d81610de9565b92915050565b5f60208284031215610e2857610e27610c7c565b5b5f610e3584828501610dff565b91505092915050565b5f81519050919050565b5f82825260208201905092915050565b8281835e5f83830152505050565b5f601f19601f8301169050919050565b5f610e8082610e3e565b610e8a8185610e48565b9350610e9a818560208601610e58565b610ea381610e66565b840191505092915050565b610eb781610ca3565b82525050565b7f4e487b71000000000000000000000000000000000000000000000000000000005f52602160045260245ffd5b60048110610efb57610efa610ebd565b5b50565b5f819050610f0b82610eea565b919050565b5f610f1a82610efe565b9050919050565b610f2a81610f10565b82525050565b60048110610f4157610f40610ebd565b5b50565b5f819050610f5182610f30565b919050565b5f610f6082610f44565b9050919050565b610f7081610f56565b82525050565b610f7f81610d32565b82525050565b5f8115159050919050565b610f9981610f85565b82525050565b5f610120820190508181035f830152610fb8818c610e76565b90508181036020830152610fcc818b610e76565b9050610fdb604083018a610eae565b610fe86060830189610f21565b610ff56080830188610f67565b61100260a0830187610f76565b61100f60c0830186610f76565b81810360e08301526110218185610e76565b9050611031610100830184610f90565b9a9950505050505050505050565b5f6020820190506110525f830184610f76565b92915050565b5f5ffd5b5f5ffd5b7f4e487b71000000000000000000000000000000000000000000000000000000005f52604160045260245ffd5b61109682610e66565b810181811067ffffffffffffffff821117156110b5576110b4611060565b5b80604052505050565b5f6110c7610c73565b90506110d3828261108d565b919050565b5f67ffffffffffffffff8211156110f2576110f1611060565b5b6110fb82610e66565b9050602081019050919050565b828183375f83830152505050565b5f611128611123846110d8565b6110be565b9050828152602081018484840111156111445761114361105c565b5b61114f848285611108565b509392505050565b5f82601f83011261116b5761116a611058565b5b813561117b848260208601611116565b91505092915050565b60048110611190575f5ffd5b50565b5f813590506111a181611184565b92915050565b5f5f5f5f608085870312156111bf576111be610c7c565b5b5f85013567ffffffffffffffff8111156111dc576111db610c80565b5b6111e887828801611157565b945050602085013567ffffffffffffffff81111561120957611208610c80565b5b61121587828801611157565b935050604061122687828801611193565b925050606085013567ffffffffffffffff81111561124757611246610c80565b5b61125387828801611157565b91505092959194509250565b5f6020820190506112725f830184610eae565b92915050565b60048110611284575f5ffd5b50565b5f8135905061129581611278565b92915050565b5f5f5f606084860312156112b2576112b1610c7c565b5b5f6112bf86828701610dff565b93505060206112d086828701611287565b925050604084013567ffffffffffffffff8111156112f1576112f0610c80565b5b6112fd86828701611157565b9150509250925092565b5f5f6040838503121561131d5761131c610c7c565b5b5f61132a85828601610cca565b925050602061133b85828601610dff565b9150509250929050565b7f4e487b71000000000000000000000000000000000000000000000000000000005f52602260045260245ffd5b5f600282049050600182168061138957607f821691505b60208210810361139c5761139b611345565b5b50919050565b7f496e73756666696369656e7420666565000000000000000000000000000000005f82015250565b5f6113d6601083610e48565b91506113e1826113a2565b602082019050919050565b5f6020820190508181035f830152611403816113ca565b9050919050565b7f4e616d65207265717569726564000000000000000000000000000000000000005f82015250565b5f61143e600d83610e48565b91506114498261140a565b602082019050919050565b5f6020820190508181035f83015261146b81611432565b9050919050565b7f43616e6e6f7420726567697374657220756e61636365707461626c65207269735f8201527f6b20414900000000000000000000000000000000000000000000000000000000602082015250565b5f6114cc602483610e48565b91506114d782611472565b604082019050919050565b5f6020820190508181035f8301526114f9816114c0565b9050919050565b7f4e487b71000000000000000000000000000000000000000000000000000000005f52601160045260245ffd5b5f61153782610d32565b91507fffffffffffffffffffffffffffffffffffffffffffffffffffffffffffffffff820361156957611568611500565b5b600182019050919050565b5f819050815f5260205f209050919050565b5f6020601f8301049050919050565b5f82821b905092915050565b5f600883026115d07fffffffffffffffffffffffffffffffffffffffffffffffffffffffffffffffff82611595565b6115da8683611595565b95508019841693508086168417925050509392505050565b5f819050919050565b5f61161561161061160b84610d32565b6115f2565b610d32565b9050919050565b5f819050919050565b61162e836115fb565b61164261163a8261161c565b8484546115a1565b825550505050565b5f5f905090565b61165961164a565b611664818484611625565b505050565b5b818110156116875761167c5f82611651565b60018101905061166a565b5050565b601f8211156116cc5761169d81611574565b6116a684611586565b810160208510156116b5578190505b6116c96116c185611586565b830182611669565b50505b505050565b5f82821c905092915050565b5f6116ec5f19846008026116d1565b1980831691505092915050565b5f61170483836116dd565b9150826002028217905092915050565b61171d82610e3e565b67ffffffffffffffff81111561173657611735611060565b5b6117408254611372565b61174b82828561168b565b5f60209050601f83116001811461177c575f841561176a578287015190505b61177485826116f9565b8655506117db565b601f19841661178a86611574565b5f5b828110156117b15784890151825560018201915060208501945060208101905061178c565b868310156117ce57848901516117ca601f8916826116dd565b8355505b6001600288020188555050505b505050505050565b5f6040820190508181035f8301526117fb8185610e76565b905061180a6020830184610f21565b9392505050565b7f4e6f7420617574686f72697a65640000000000000000000000000000000000005f82015250565b5f611845600e83610e48565b915061185082611811565b602082019050919050565b5f6020820190508181035f83015261187281611839565b9050919050565b7f4e6f206665657320746f207769746864726177000000000000000000000000005f82015250565b5f6118ad601383610e48565b91506118b882611879565b602082019050919050565b5f6020820190508181035f8301526118da816118a1565b9050919050565b5f81905092915050565b50565b5f6118f95f836118e1565b9150611904826118eb565b5f82019050919050565b5f611918826118ee565b9150819050919050565b7f4661696c656420746f2073656e642045746865720000000000000000000000005f82015250565b5f611956601483610e48565b915061196182611922565b602082019050919050565b5f6020820190508181035f8301526119838161194a565b9050919050565b7f4e6f742073797374656d2070726f7669646572000000000000000000000000005f82015250565b5f6119be601383610e48565b91506119c98261198a565b602082019050919050565b5f6020820190508181035f8301526119eb816119b2565b9050919050565b5f604082019050611a055f830185610f67565b611a126020830184610f67565b939250505056fea2646970667358221220d488371af8fb3c621cabaeaf86d08887b628d1ba903f716c33d33d300e62aa1464736f6c634300081e0033","linkReferences":{}},"methodIdentifiers":{"getProviderSystems(address)":"0982114c","owner()":"8da5cb5b","providerSystems(address,uint256)":"d04c82bd","registerSystem(string,string,uint8,string)":"37081fbe","registrationFee()":"14c44e09","systems(uint256)":"0ffca604","totalSystems()":"fb2860ff","updateCompliance(uint256,uint8,string)":"b14af36c","updateFee(uint256)":"9012c4a8","withdrawFees()":"476343ee"},"id":16}